{
  "_format": "hh-sol-artifact-1",
  "contractName": "marketPlaceBoilerPlate",
  "sourceName": "contracts/marketPlaceBoilerPlate.sol",
  "abi": [
    {
      "inputs": [],
      "stateMutability": "nonpayable",
      "type": "constructor"
    },
    {
      "anonymous": false,
      "inputs": [
        {
          "indexed": true,
          "internalType": "uint256",
          "name": "itemId",
          "type": "uint256"
        },
        {
          "indexed": true,
          "internalType": "address",
          "name": "nftContract",
          "type": "address"
        },
        {
          "indexed": true,
          "internalType": "uint256",
          "name": "tokenId",
          "type": "uint256"
        },
        {
          "indexed": false,
          "internalType": "address",
          "name": "seller",
          "type": "address"
        },
        {
          "indexed": false,
          "internalType": "address",
          "name": "owner",
          "type": "address"
        },
        {
          "indexed": false,
          "internalType": "uint256",
          "name": "price",
          "type": "uint256"
        },
        {
          "indexed": false,
          "internalType": "bool",
          "name": "sold",
          "type": "bool"
        }
      ],
      "name": "MarketItemCreated",
      "type": "event"
    },
    {
      "anonymous": false,
      "inputs": [
        {
          "indexed": true,
          "internalType": "uint256",
          "name": "itemId",
          "type": "uint256"
        },
        {
          "indexed": false,
          "internalType": "address",
          "name": "owner",
          "type": "address"
        }
      ],
      "name": "MarketItemSold",
      "type": "event"
    },
    {
      "inputs": [
        {
          "internalType": "address",
          "name": "nftContract",
          "type": "address"
        },
        {
          "internalType": "uint256",
          "name": "tokenId",
          "type": "uint256"
        },
        {
          "internalType": "uint256",
          "name": "price",
          "type": "uint256"
        }
      ],
      "name": "createMarketItem",
      "outputs": [],
      "stateMutability": "payable",
      "type": "function"
    },
    {
      "inputs": [
        {
          "internalType": "address",
          "name": "nftContract",
          "type": "address"
        },
        {
          "internalType": "uint256",
          "name": "itemId",
          "type": "uint256"
        }
      ],
      "name": "createMarketSale",
      "outputs": [],
      "stateMutability": "payable",
      "type": "function"
    },
    {
      "inputs": [],
      "name": "fetchMarketItems",
      "outputs": [
        {
          "components": [
            {
              "internalType": "uint256",
              "name": "itemId",
              "type": "uint256"
            },
            {
              "internalType": "address",
              "name": "nftContract",
              "type": "address"
            },
            {
              "internalType": "uint256",
              "name": "tokenId",
              "type": "uint256"
            },
            {
              "internalType": "address payable",
              "name": "seller",
              "type": "address"
            },
            {
              "internalType": "address payable",
              "name": "owner",
              "type": "address"
            },
            {
              "internalType": "uint256",
              "name": "price",
              "type": "uint256"
            },
            {
              "internalType": "bool",
              "name": "sold",
              "type": "bool"
            }
          ],
          "internalType": "struct marketPlaceBoilerPlate.MarketItem[]",
          "name": "",
          "type": "tuple[]"
        }
      ],
      "stateMutability": "view",
      "type": "function"
    },
    {
      "inputs": [],
      "name": "owner",
      "outputs": [
        {
          "internalType": "address",
          "name": "",
          "type": "address"
        }
      ],
      "stateMutability": "view",
      "type": "function"
    }
  ],
  "bytecode": "0x608060405234801561001057600080fd5b50600160008190555033600360006101000a81548173ffffffffffffffffffffffffffffffffffffffff021916908373ffffffffffffffffffffffffffffffffffffffff1602179055506111a4806100696000396000f3fe60806040526004361061003f5760003560e01c80630f08efe01461004457806358eb2df51461006f5780638da5cb5b1461008b578063c23b139e146100b6575b600080fd5b34801561005057600080fd5b506100596100d2565b6040516100669190610c51565b60405180910390f35b61008960048036038101906100849190610cd0565b61039c565b005b34801561009757600080fd5b506100a06106bc565b6040516100ad9190610d32565b60405180910390f35b6100d060048036038101906100cb9190610d4d565b6106e2565b005b606060006100e060016109d9565b905060006100ee60026109d9565b6100f860016109d9565b6101029190610dbc565b90506000808267ffffffffffffffff81111561012157610120610df0565b5b60405190808252806020026020018201604052801561015a57816020015b6101476109fd565b81526020019060019003908161013f5790505b50905060005b8481101561039157600073ffffffffffffffffffffffffffffffffffffffff16600460006001846101919190610e1f565b815260200190815260200160002060040160009054906101000a900473ffffffffffffffffffffffffffffffffffffffff1673ffffffffffffffffffffffffffffffffffffffff16141561037e5760006001826101ee9190610e1f565b90506000600460008381526020019081526020016000209050806040518060e0016040529081600082015481526020016001820160009054906101000a900473ffffffffffffffffffffffffffffffffffffffff1673ffffffffffffffffffffffffffffffffffffffff1673ffffffffffffffffffffffffffffffffffffffff168152602001600282015481526020016003820160009054906101000a900473ffffffffffffffffffffffffffffffffffffffff1673ffffffffffffffffffffffffffffffffffffffff1673ffffffffffffffffffffffffffffffffffffffff1681526020016004820160009054906101000a900473ffffffffffffffffffffffffffffffffffffffff1673ffffffffffffffffffffffffffffffffffffffff1673ffffffffffffffffffffffffffffffffffffffff168152602001600582015481526020016006820160009054906101000a900460ff16151515158152505084868151811061036157610360610e75565b5b60200260200101819052506001856103799190610e1f565b945050505b808061038990610ea4565b915050610160565b508094505050505090565b600260005414156103e2576040517f08c379a00000000000000000000000000000000000000000000000000000000081526004016103d990610f4a565b60405180910390fd5b60026000819055506000811161042d576040517f08c379a000000000000000000000000000000000000000000000000000000000815260040161042490610fb6565b60405180910390fd5b61043760016109e7565b600061044360016109d9565b90506040518060e001604052808281526020018573ffffffffffffffffffffffffffffffffffffffff1681526020018481526020013373ffffffffffffffffffffffffffffffffffffffff168152602001600073ffffffffffffffffffffffffffffffffffffffff16815260200183815260200160001515815250600460008381526020019081526020016000206000820151816000015560208201518160010160006101000a81548173ffffffffffffffffffffffffffffffffffffffff021916908373ffffffffffffffffffffffffffffffffffffffff1602179055506040820151816002015560608201518160030160006101000a81548173ffffffffffffffffffffffffffffffffffffffff021916908373ffffffffffffffffffffffffffffffffffffffff16021790555060808201518160040160006101000a81548173ffffffffffffffffffffffffffffffffffffffff021916908373ffffffffffffffffffffffffffffffffffffffff16021790555060a0820151816005015560c08201518160060160006101000a81548160ff0219169083151502179055509050508373ffffffffffffffffffffffffffffffffffffffff166323b872dd3330866040518463ffffffff1660e01b815260040161062493929190610fe5565b600060405180830381600087803b15801561063e57600080fd5b505af1158015610652573d6000803e3d6000fd5b50505050828473ffffffffffffffffffffffffffffffffffffffff16827f045dfa01dcba2b36aba1d3dc4a874f4b0c5d2fbeb8d2c4b34a7d88c8d8f929d13360008760006040516106a6949392919061102b565b60405180910390a4506001600081905550505050565b600360009054906101000a900473ffffffffffffffffffffffffffffffffffffffff1681565b60026000541415610728576040517f08c379a000000000000000000000000000000000000000000000000000000000815260040161071f90610f4a565b60405180910390fd5b600260008190555060006004600083815260200190815260200160002060050154905060006004600084815260200190815260200160002060020154905060006004600085815260200190815260200160002060060160009054906101000a900460ff1690508234146107d0576040517f08c379a00000000000000000000000000000000000000000000000000000000081526004016107c7906110e2565b60405180910390fd5b600115158115151415610818576040517f08c379a000000000000000000000000000000000000000000000000000000000815260040161080f9061114e565b60405180910390fd5b837f2073b2706c235effb1e3840575370a51749afd8181b4018f93bff955d50792cb336040516108489190610d32565b60405180910390a26004600085815260200190815260200160002060030160009054906101000a900473ffffffffffffffffffffffffffffffffffffffff1673ffffffffffffffffffffffffffffffffffffffff166108fc349081150290604051600060405180830381858888f193505050501580156108cc573d6000803e3d6000fd5b508473ffffffffffffffffffffffffffffffffffffffff166323b872dd3033856040518463ffffffff1660e01b815260040161090a93929190610fe5565b600060405180830381600087803b15801561092457600080fd5b505af1158015610938573d6000803e3d6000fd5b50505050336004600086815260200190815260200160002060040160006101000a81548173ffffffffffffffffffffffffffffffffffffffff021916908373ffffffffffffffffffffffffffffffffffffffff16021790555061099b60026109e7565b60016004600086815260200190815260200160002060060160006101000a81548160ff02191690831515021790555050505060016000819055505050565b600081600001549050919050565b6001816000016000828254019250508190555050565b6040518060e0016040528060008152602001600073ffffffffffffffffffffffffffffffffffffffff16815260200160008152602001600073ffffffffffffffffffffffffffffffffffffffff168152602001600073ffffffffffffffffffffffffffffffffffffffff168152602001600081526020016000151581525090565b600081519050919050565b600082825260208201905092915050565b6000819050602082019050919050565b6000819050919050565b610abd81610aaa565b82525050565b600073ffffffffffffffffffffffffffffffffffffffff82169050919050565b6000610aee82610ac3565b9050919050565b610afe81610ae3565b82525050565b6000610b0f82610ac3565b9050919050565b610b1f81610b04565b82525050565b60008115159050919050565b610b3a81610b25565b82525050565b60e082016000820151610b566000850182610ab4565b506020820151610b696020850182610af5565b506040820151610b7c6040850182610ab4565b506060820151610b8f6060850182610b16565b506080820151610ba26080850182610b16565b5060a0820151610bb560a0850182610ab4565b5060c0820151610bc860c0850182610b31565b50505050565b6000610bda8383610b40565b60e08301905092915050565b6000602082019050919050565b6000610bfe82610a7e565b610c088185610a89565b9350610c1383610a9a565b8060005b83811015610c44578151610c2b8882610bce565b9750610c3683610be6565b925050600181019050610c17565b5085935050505092915050565b60006020820190508181036000830152610c6b8184610bf3565b905092915050565b600080fd5b610c8181610ae3565b8114610c8c57600080fd5b50565b600081359050610c9e81610c78565b92915050565b610cad81610aaa565b8114610cb857600080fd5b50565b600081359050610cca81610ca4565b92915050565b600080600060608486031215610ce957610ce8610c73565b5b6000610cf786828701610c8f565b9350506020610d0886828701610cbb565b9250506040610d1986828701610cbb565b9150509250925092565b610d2c81610ae3565b82525050565b6000602082019050610d476000830184610d23565b92915050565b60008060408385031215610d6457610d63610c73565b5b6000610d7285828601610c8f565b9250506020610d8385828601610cbb565b9150509250929050565b7f4e487b7100000000000000000000000000000000000000000000000000000000600052601160045260246000fd5b6000610dc782610aaa565b9150610dd283610aaa565b925082821015610de557610de4610d8d565b5b828203905092915050565b7f4e487b7100000000000000000000000000000000000000000000000000000000600052604160045260246000fd5b6000610e2a82610aaa565b9150610e3583610aaa565b9250827fffffffffffffffffffffffffffffffffffffffffffffffffffffffffffffffff03821115610e6a57610e69610d8d565b5b828201905092915050565b7f4e487b7100000000000000000000000000000000000000000000000000000000600052603260045260246000fd5b6000610eaf82610aaa565b91507fffffffffffffffffffffffffffffffffffffffffffffffffffffffffffffffff821415610ee257610ee1610d8d565b5b600182019050919050565b600082825260208201905092915050565b7f5265656e7472616e637947756172643a207265656e7472616e742063616c6c00600082015250565b6000610f34601f83610eed565b9150610f3f82610efe565b602082019050919050565b60006020820190508181036000830152610f6381610f27565b9050919050565b7f5072696365206d7573742062652067726561746572207468616e203000000000600082015250565b6000610fa0601c83610eed565b9150610fab82610f6a565b602082019050919050565b60006020820190508181036000830152610fcf81610f93565b9050919050565b610fdf81610aaa565b82525050565b6000606082019050610ffa6000830186610d23565b6110076020830185610d23565b6110146040830184610fd6565b949350505050565b61102581610b25565b82525050565b60006080820190506110406000830187610d23565b61104d6020830186610d23565b61105a6040830185610fd6565b611067606083018461101c565b95945050505050565b7f506c65617365207375626d6974207468652061736b696e67207072696365206960008201527f6e206f7264657220746f20636f6d706c65746520746865207075726368617365602082015250565b60006110cc604083610eed565b91506110d782611070565b604082019050919050565b600060208201905081810360008301526110fb816110bf565b9050919050565b7f546869732053616c652068617320616c726564792066696e6e69736865640000600082015250565b6000611138601e83610eed565b915061114382611102565b602082019050919050565b600060208201905081810360008301526111678161112b565b905091905056fea2646970667358221220562ea96b0ce83ae98fa282a7af5b60148acf79352b7963be9cd0e8e9901e97fe64736f6c634300080b0033",
  "linkReferences": {},
  "deployedLinkReferences": {}
}